{
  "_format": "hh-sol-artifact-1",
  "contractName": "Greeter",
  "sourceName": "contracts/Greeter.sol",
  "abi": [
    {
      "inputs": [
        {
          "internalType": "string",
          "name": "_greeting",
          "type": "string"
        }
      ],
      "stateMutability": "nonpayable",
      "type": "constructor"
    },
    {
      "inputs": [],
      "name": "customOfficierAddress",
      "outputs": [
        {
          "internalType": "address",
          "name": "",
          "type": "address"
        }
      ],
      "stateMutability": "view",
      "type": "function"
    },
    {
      "inputs": [],
      "name": "greeting",
      "outputs": [
        {
          "internalType": "string",
          "name": "",
          "type": "string"
        }
      ],
      "stateMutability": "view",
      "type": "function"
    },
    {
      "inputs": [
        {
          "internalType": "string",
          "name": "_greeting",
          "type": "string"
        }
      ],
      "name": "setGreeting",
      "outputs": [],
      "stateMutability": "nonpayable",
      "type": "function"
    },
    {
      "inputs": [],
      "name": "shopAddress",
      "outputs": [
        {
          "internalType": "address",
          "name": "",
          "type": "address"
        }
      ],
      "stateMutability": "view",
      "type": "function"
    }
  ],
  "bytecode": "0x608060405273dbe3789d4ce44d54000678b513a4bcd889aed83f600160006101000a81548173ffffffffffffffffffffffffffffffffffffffff021916908373ffffffffffffffffffffffffffffffffffffffff160217905550737713d929be30851007d0bd79d3a4bb381acc62cb600260006101000a81548173ffffffffffffffffffffffffffffffffffffffff021916908373ffffffffffffffffffffffffffffffffffffffff160217905550348015620000bb57600080fd5b50604051620011e6380380620011e68339818101604052810190620000e1919062000384565b62000111604051806060016040528060228152602001620011c460229139826200012a60201b620002601760201c565b806000908162000122919062000620565b505062000794565b620001cc82826040516024016200014392919062000759565b6040516020818303038152906040527f4b5c4277000000000000000000000000000000000000000000000000000000007bffffffffffffffffffffffffffffffffffffffffffffffffffffffff19166020820180517bffffffffffffffffffffffffffffffffffffffffffffffffffffffff8381831617835250505050620001d060201b60201c565b5050565b60006a636f6e736f6c652e6c6f679050600080835160208501845afa505050565b6000604051905090565b600080fd5b600080fd5b600080fd5b600080fd5b6000601f19601f8301169050919050565b7f4e487b7100000000000000000000000000000000000000000000000000000000600052604160045260246000fd5b6200025a826200020f565b810181811067ffffffffffffffff821117156200027c576200027b62000220565b5b80604052505050565b600062000291620001f1565b90506200029f82826200024f565b919050565b600067ffffffffffffffff821115620002c257620002c162000220565b5b620002cd826200020f565b9050602081019050919050565b60005b83811015620002fa578082015181840152602081019050620002dd565b60008484015250505050565b60006200031d6200031784620002a4565b62000285565b9050828152602081018484840111156200033c576200033b6200020a565b5b62000349848285620002da565b509392505050565b600082601f83011262000369576200036862000205565b5b81516200037b84826020860162000306565b91505092915050565b6000602082840312156200039d576200039c620001fb565b5b600082015167ffffffffffffffff811115620003be57620003bd62000200565b5b620003cc8482850162000351565b91505092915050565b600081519050919050565b7f4e487b7100000000000000000000000000000000000000000000000000000000600052602260045260246000fd5b600060028204905060018216806200042857607f821691505b6020821081036200043e576200043d620003e0565b5b50919050565b60008190508160005260206000209050919050565b60006020601f8301049050919050565b600082821b905092915050565b600060088302620004a87fffffffffffffffffffffffffffffffffffffffffffffffffffffffffffffffff8262000469565b620004b4868362000469565b95508019841693508086168417925050509392505050565b6000819050919050565b6000819050919050565b600062000501620004fb620004f584620004cc565b620004d6565b620004cc565b9050919050565b6000819050919050565b6200051d83620004e0565b620005356200052c8262000508565b84845462000476565b825550505050565b600090565b6200054c6200053d565b6200055981848462000512565b505050565b5b8181101562000581576200057560008262000542565b6001810190506200055f565b5050565b601f821115620005d0576200059a8162000444565b620005a58462000459565b81016020851015620005b5578190505b620005cd620005c48562000459565b8301826200055e565b50505b505050565b600082821c905092915050565b6000620005f560001984600802620005d5565b1980831691505092915050565b6000620006108383620005e2565b9150826002028217905092915050565b6200062b82620003d5565b67ffffffffffffffff81111562000647576200064662000220565b5b6200065382546200040f565b6200066082828562000585565b600060209050601f83116001811462000698576000841562000683578287015190505b6200068f858262000602565b865550620006ff565b601f198416620006a88662000444565b60005b82811015620006d257848901518255600182019150602085019450602081019050620006ab565b86831015620006f25784890151620006ee601f891682620005e2565b8355505b6001600288020188555050505b505050505050565b600082825260208201905092915050565b60006200072582620003d5565b62000731818562000707565b935062000743818560208601620002da565b6200074e816200020f565b840191505092915050565b6000604082019050818103600083015262000775818562000718565b905081810360208301526200078b818462000718565b90509392505050565b610a2080620007a46000396000f3fe608060405234801561001057600080fd5b506004361061004b5760003560e01c8062179b311461005057806322446fb81461006e578063a41368621461008c578063ef690cc0146100a8575b600080fd5b6100586100c6565b60405161006591906103fd565b60405180910390f35b6100766100ec565b60405161008391906103fd565b60405180910390f35b6100a660048036038101906100a19190610572565b610112565b005b6100b06101d2565b6040516100bd919061063a565b60405180910390f35b600260009054906101000a900473ffffffffffffffffffffffffffffffffffffffff1681565b600160009054906101000a900473ffffffffffffffffffffffffffffffffffffffff1681565b6101bf6040518060600160405280602381526020016109c8602391396000805461013b9061068b565b80601f01602080910402602001604051908101604052809291908181526020018280546101679061068b565b80156101b45780601f10610189576101008083540402835291602001916101b4565b820191906000526020600020905b81548152906001019060200180831161019757829003601f168201915b5050505050836102fc565b80600090816101ce9190610872565b5050565b600080546101df9061068b565b80601f016020809104026020016040519081016040528092919081815260200182805461020b9061068b565b80156102585780601f1061022d57610100808354040283529160200191610258565b820191906000526020600020905b81548152906001019060200180831161023b57829003601f168201915b505050505081565b6102f88282604051602401610276929190610944565b6040516020818303038152906040527f4b5c4277000000000000000000000000000000000000000000000000000000007bffffffffffffffffffffffffffffffffffffffffffffffffffffffff19166020820180517bffffffffffffffffffffffffffffffffffffffffffffffffffffffff838183161783525050505061039b565b5050565b6103968383836040516024016103149392919061097b565b6040516020818303038152906040527f2ced7cef000000000000000000000000000000000000000000000000000000007bffffffffffffffffffffffffffffffffffffffffffffffffffffffff19166020820180517bffffffffffffffffffffffffffffffffffffffffffffffffffffffff838183161783525050505061039b565b505050565b60006a636f6e736f6c652e6c6f679050600080835160208501845afa505050565b600073ffffffffffffffffffffffffffffffffffffffff82169050919050565b60006103e7826103bc565b9050919050565b6103f7816103dc565b82525050565b600060208201905061041260008301846103ee565b92915050565b6000604051905090565b600080fd5b600080fd5b600080fd5b600080fd5b6000601f19601f8301169050919050565b7f4e487b7100000000000000000000000000000000000000000000000000000000600052604160045260246000fd5b61047f82610436565b810181811067ffffffffffffffff8211171561049e5761049d610447565b5b80604052505050565b60006104b1610418565b90506104bd8282610476565b919050565b600067ffffffffffffffff8211156104dd576104dc610447565b5b6104e682610436565b9050602081019050919050565b82818337600083830152505050565b6000610515610510846104c2565b6104a7565b90508281526020810184848401111561053157610530610431565b5b61053c8482856104f3565b509392505050565b600082601f8301126105595761055861042c565b5b8135610569848260208601610502565b91505092915050565b60006020828403121561058857610587610422565b5b600082013567ffffffffffffffff8111156105a6576105a5610427565b5b6105b284828501610544565b91505092915050565b600081519050919050565b600082825260208201905092915050565b60005b838110156105f55780820151818401526020810190506105da565b60008484015250505050565b600061060c826105bb565b61061681856105c6565b93506106268185602086016105d7565b61062f81610436565b840191505092915050565b600060208201905081810360008301526106548184610601565b905092915050565b7f4e487b7100000000000000000000000000000000000000000000000000000000600052602260045260246000fd5b600060028204905060018216806106a357607f821691505b6020821081036106b6576106b561065c565b5b50919050565b60008190508160005260206000209050919050565b60006020601f8301049050919050565b600082821b905092915050565b60006008830261071e7fffffffffffffffffffffffffffffffffffffffffffffffffffffffffffffffff826106e1565b61072886836106e1565b95508019841693508086168417925050509392505050565b6000819050919050565b6000819050919050565b600061076f61076a61076584610740565b61074a565b610740565b9050919050565b6000819050919050565b61078983610754565b61079d61079582610776565b8484546106ee565b825550505050565b600090565b6107b26107a5565b6107bd818484610780565b505050565b5b818110156107e1576107d66000826107aa565b6001810190506107c3565b5050565b601f821115610826576107f7816106bc565b610800846106d1565b8101602085101561080f578190505b61082361081b856106d1565b8301826107c2565b50505b505050565b600082821c905092915050565b60006108496000198460080261082b565b1980831691505092915050565b60006108628383610838565b9150826002028217905092915050565b61087b826105bb565b67ffffffffffffffff81111561089457610893610447565b5b61089e825461068b565b6108a98282856107e5565b600060209050601f8311600181146108dc57600084156108ca578287015190505b6108d48582610856565b86555061093c565b601f1984166108ea866106bc565b60005b82811015610912578489015182556001820191506020850194506020810190506108ed565b8683101561092f578489015161092b601f891682610838565b8355505b6001600288020188555050505b505050505050565b6000604082019050818103600083015261095e8185610601565b905081810360208301526109728184610601565b90509392505050565b600060608201905081810360008301526109958186610601565b905081810360208301526109a98185610601565b905081810360408301526109bd8184610601565b905094935050505056fe4368616e67696e67206772656574696e672066726f6d202725732720746f2027257327a2646970667358221220f3ff627673e83ad78eb24bdef92435f4d1a5465144f87e05ef3ab0513b35ae0064736f6c634300081200334465706c6f79696e67206120477265657465722077697468206772656574696e673a",
  "linkReferences": {},
  "deployedLinkReferences": {}
}